:020000040000FA
:0600000034EF06F01200CF
:020006001200E6
:06000800B1EF02F012004E
:02000E000100EF
:080010000000000100190000CE
:06001800F8EF03F01200F6
:02001E000100DF
:0C0020000E0000007B0000000A00000041
:04002C00D9CFE6FF43
:10003000E1CFD9FF030EE126DE6ADD6ADECF15F0DF
:10004000DDCF16F0FD0EDBCF17F0FE0EDBCF18F084
:100050001750155C185016581BE2020EDB6A020E90
:10006000DB50156E166AD890165004E6C80E155C63
:10007000000E165808E2000000000000000000001A
:10008000020EDB2AECD7DF2A010E01E3DB2AD6D7EA
:10009000030EE15C02E2E16AE552E16EE552E7CF70
:1000A000D9FF1200D9CFE6FFE1CFD9FFFE0EDB501A
:1000B000836EE552E7CFD9FF1200D9CFE6FFE1CF3B
:1000C000D9FF8482FE0EDBCFE6FFECDFE55284949D
:1000D000030EE66EE66AAADFE552E5528492030E4D
:1000E000E66EE66AA3DFE552E5528482E552E7CF89
:1000F000D9FF1200D9CFE6FFE1CFD9FF8482FE0EEF
:10010000DBCFE6FFCFDFE5528484030EE66EE66ABE
:100110008DDFE552E5528492030EE66EE66A86DFD5
:10012000E552E5528482E552E7CFD9FF1200D9CFDC
:10013000E6FFE1CFD9FF84928494140EE66EE66A5E
:1001400075DFE552E5528482380EE66EB6DFE55281
:10015000050EE66EE66A6ADFE552E552380EE66E97
:10016000ACDFE552010EE66EE66A60DFE552E5526D
:10017000380EE66EA2DFE552080EE66E9EDFE5520F
:100180000F0EE66E9ADFE552010EE66E96DFE5523F
:10019000380EE66E92DFE552800EE66E8EDFE55297
:1001A000E552E7CFD9FF1200D9CFE6FFE1CFD9FF63
:1001B000FD0EDBCFF6FFFE0EDBCFF7FF0800F5509C
:1001C00011E0FD0EDBCFF6FFFE0EDBCFF7FF0800E0
:1001D000F550E66E8FDFE552FD0EDB2AFE0E01E3E1
:1001E000DB2AE6D7E552E7CFD9FF1200D9CFE6FFE9
:1001F000E1CFD9FFFD0EDBCFE9FFFE0EDBCFEAFF3B
:10020000EF5010E0FD0EDBCFE9FFFE0EDBCFEAFF83
:10021000EF50E66E6FDFE552FD0EDB2AFE0E01E3C6
:10022000DB2AE8D7E552E7CFD9FF12003F0E946EE4
:10023000010E926E070E936E966A956AF19ED08EAD
:10024000F28CF28EF288F292F086F090F08CF088C8
:10025000F092F08E860ED56EF184F294F28A6A0ED8
:10026000E66E670EE66EDBEC05F0E552E5529F8028
:100270009E90F40ECD6ECD94050ECA6EF90ECB6E27
:100280000C0EBA6EAC84AC98B896AB8E949CAC8ACB
:10029000810EAF6EB06A0B0EBD6E9D849F949E94CE
:1002A000050EBF6E8B0EBE6E010EC26E0E0EC16EBF
:1002B000BD0EC06E9D8C9F9C9E9C2B0EE66E37DF04
:1002C000E552010EE66EF9DEE552080EE66EF7EC39
:1002D00005F0E5520C0EE66EF0DEE5528086809A5F
:1002E00000017F51030A01E195D0090A01E17AD0AA
:1002F000080A6CE0030A4EE0010A01E0EED0C00EED
:10030000E66EDBDEE552A50EE66E0B0EE66E4CDF0A
:10031000E552E552FF0E0001805D3BE100016D51A9
:10032000E66EE66A82C015F0166A176A186A15AE9C
:1003300003D016681768186815C0E6FF16C0E6FFF8
:1003400017C0E6FF18C0E6FF75EC04F0196E060E44
:10035000E15E1950860EE66EB0DEE55200016D5189
:10036000E66EE66A43DFE552E552200EE66EC2DE37
:10037000E552430EE66EBEDEE552C00EE66E9DDE31
:10038000E552930EE66E0B0EE66E0EDFE552E55279
:10039000C1D7A3D0C00EE66E90DEE552830EE66EA6
:1003A0000B0EE66E01DFE552E552FF0E0001805DA7
:1003B0000CE1C00EE66E81DEE552740EE66E0B0EA9
:1003C000E66EF2DEE552E552F0D787D0C00EE66E5B
:1003D00074DEE552630EE66E0B0EE66EE5DEE55268
:1003E000E5527BD0C00EE66E68DEE552520EE66E38
:1003F0000B0EE66ED9DEE552E552ACA2FED76EC01A
:10040000ADFFACA2FED70A0EAD6EACA2FED70D0EAC
:10041000AD6E63D0C00EE66E50DEE552440EE66E61
:100420000B0EE66EC1DEE552E552FF0E0001805D67
:1004300053E13D0E946E83C0E6FF84C0E6FF4FD8C3
:10044000E552E5520A0E156E166A83C006F084C0A6
:1004500007F015C00BF016C00CF00EEC06F006C04D
:1004600069F06A0EE66E000EE66E69C015F0166A57
:10047000176A186A15AE03D016681768186815C091
:10048000E6FF16C0E6FF17C0E6FF18C0E6FF75ECF2
:1004900004F0196E060EE15E1950C00EE66E0DDE18
:1004A000E5523B0EE66E0B0EE66E7EDEE552E55241
:1004B0006A0EE66E000EE66E99DEE552E552320EE9
:1004C000E66E0B0EE66E70DEE552E552320EE66E1B
:1004D000F7EC05F0E552A9D700D000D71200D9CF2C
:1004E000E6FFE1CFD9FFFD0EDBCF15F0FE0EDBCF2F
:1004F00016F0D89016321532D890163215321550A3
:10050000BB6EFD0EDBCF15F0FE0EDBCF16F000014B
:10051000166A010E15161550E8B0BA88E8A0BA9808
:10052000FD0EDBCF15F0FE0EDBCF16F0D8901632A5
:100530001532FD0E15C0DBFFFE0E16C0DBFFFD0EF3
:10054000DBCF15F0FE0EDBCF16F0166A010E151686
:100550001550E8B0BA8AE8A0BA9AE552E7CFD9FFB9
:02056000120087
:0E056200DACFE4FFE2CFDAFFE9CFE4FFEACF21
:10057000E4FFF6CFE4FFF7CFE4FFF5CFE4FFF3CFDE
:10058000E4FFF4CFE4FFFACFE4FF00EE00F0100E3A
:10059000E80403E3EECFE4FFFBD700EE15F0050E11
:1005A000E80403E3EECFE4FFFBD7E6526A0EE66E03
:1005B000670EE66EDBEC05F0E552E55200017C517A
:1005C00008E100017D5105E100017E5102E1F29454
:1005D00034D000017C077C3503E300017D5106E146
:1005E00000017C352AE300017E5127E000013B0E2B
:1005F0007C6F00017D077D350BE300017E5108E033
:1006000000013B0E7D6F00017E077E3501E37E6BAE
:10061000020E00017E5D11E1000E0001E76E7D1902
:10062000E8AE02D07D3503D0E750D8807D5505E295
:100630007D5102E0000E01D0010EF294C282CF0E75
:10064000CF6E2C0ECE6E9E900001800517E1F0A0BB
:1006500008D000017B5100017F27040E7F5D01E17E
:100660007F6BF090F0A208D000017B5100017F5F0A
:100670007F3502E3030E7F6FF09243D0FF0E805D63
:1006800022E1F050010B1FE000017F511CE1050E3B
:10069000000182274B0EE76E8219E8AE02D0823548
:1006A00003D0E750D880825501E2826B190EE76EC5
:1006B0008219E8AE02D0E73402D0E750825D02E250
:1006C000190E826FF090F0A21CD0050E0001825F1F
:1006D000190EE76E8219E8AE02D0E73402D0E75077
:1006E000825D02E2190E826F4B0EE76E8219E8AE50
:1006F00002D0823503D0E750D880825501E2826B68
:10070000F09200017F51030A32E0090A2AE0080A48
:1007100022E0030A11E0010A01E046D0F2A203D070
:100720000001806DF292FF0E0001805D05E1F25044
:10073000020B02E0806DF292F2A203D00001806D04
:10074000F292FF0E0001805D05E1F250020B02E023
:10075000806DF29229D0F2A202D00A0E7F6FF2923F
:1007600023D0F2A202D0020E7F6FF2921DD0F2A22D
:1007700003D00001806DF292FF0E0001805D13E155
:10078000F0A011D0640E0001832783C01AF01B6A09
:100790001ABE1B681B3404E21A50E808030E1B54EF
:1007A00001E2836BF09000D0E55200EE19F0050EE7
:1007B000E80403E3E5CFEDFFFBD700EE0FF0100EEA
:1007C000E80403E3E5CFEDFFFBD7E5CFFAFFE5CF84
:1007D000F4FFE5CFF3FFE5CFF5FFE5CFF7FFE5CF7A
:1007E000F6FFE5CFEAFFE5CFE9FFE5CFDAFF11003D
:1007F000D8CFE4FFE0CFE4FFE46EDACFE4FFE2CF4E
:10080000DAFFE9CFE4FFEACFE4FFF6CFE4FFF7CF6A
:10081000E4FFF5CFE4FFF3CFE4FFF4CFE4FFFACF3A
:10082000E4FF00EE00F0100EE80403E3EECFE4FF77
:10083000FBD700EE15F0050EE80403E3EECFE4FF6E
:10084000FBD7E6529EAC28D0C450106E116A10C07F
:1008500011F0106AC350126E136A10501224000176
:100860006E6F70C0E6FF6EC010F0116A126A136AF4
:1008700010AE03D011681268136810C0E6FF11C0F3
:10088000E6FF12C0E6FF13C0E6FF75EC04F0146E3D
:10089000050EE15E14509E9CE55200EE19F0050E27
:1008A000E80403E3E5CFEDFFFBD700EE0FF0100EF9
:1008B000E80403E3E5CFEDFFFBD7E5CFFAFFE5CF93
:1008C000F4FFE5CFF3FFE5CFF5FFE5CFF7FFE5CF89
:1008D000F6FFE5CFEAFFE5CFE9FFE5CFDAFFE55028
:0A08E000E5CFE0FFE5CFD8FF1000E0
:0608EA00D9CFE6FFDACFD2
:1008F000E6FFF80EE3CFD9FFF90EE3CFDAFFFD0EE6
:10090000E35215E72D0EDE6EFA0EE31EFB0EE31E1C
:10091000FC0EE31EFD0EE31EFA0EE32A08E1FB0EB9
:10092000E32A05E1FC0EE32A02E1FD0EE32AE6528A
:10093000E652E652E652E652FB0EE124E76EFF0E67
:10094000E220E46EE652F30EE3CFE6FFF30EE3CFD0
:10095000E6FFF30EE3CFE6FFF30EE3CFE6FF12EC84
:1009600005F0F50EE124E96EFF0EE220EA6EFFECE1
:1009700004F019E102EC05F018E1FFEC04F017E1D6
:1009800002EC05F016E1FFEC04F015E102EC05F0D5
:1009900014E1FFEC04F013E102EC05F012E1FFECCE
:1009A00004F011E112D008EC05F00DEC05F008ECB4
:1009B00005F00DEC05F008EC05F00DEC05F008EC89
:1009C00005F00DEC05F008EC05F00DEC05F0DE6A25
:1009D000F50EE126FF0EE222FF0EE3CFDAFFE5522D
:1009E000FF0EE3CFD9FFE552FA0EE124E96EFF0EC8
:1009F000E220EA6EEECFF3FFEFCFF4FF1200EF3804
:100A00000F0B1200EF500F0B02E1EE52D8841200D0
:100A1000EF380F0B300FDE6E1200EE500F0B300F61
:100A2000DE6E1200FA0EE3CFE9FFFB0EE3CFEAFF22
:100A3000200EE66EEE6AEE6AEE6AEE6AEF6AD89013
:100A4000FB0EE336FC0EE336FD0EE336FE0EE33618
:100A5000ED36ED36ED36ED36EF36FF0EE3060FE000
:100A600041EC05F0EE5241EC05F0EE5241EC05F0A0
:100A7000EE5241EC05F0EE5241EC05F0E1D7E56EA7
:100A80001200030EEF24E8B6EF6E300EEF24E8BE3E
:040A9000EF6E000CF9
:0C0A94001E0EF66E000EF76E000EF86EDF
:100AA00000010900F550766F0900F550776F03E1FA
:100AB000766701D03DD00900F550716F0900F550FF
:100AC000726F0900F550736F09000900F550E96E67
:100AD0000900F550EA6E090009000900F550746F2D
:100AE0000900F550756F09000900F6CF78F0F7CFCF
:100AF00079F0F8CF7AF071C0F6FF72C0F7FF73C0DB
:100B0000F8FF0001745302E1755307E00900F55046
:100B1000EE6E7407F8E27507F9D778C0F6FF79C072
:100B2000F7FF7AC0F8FF00017607000E775BBFD7AA
:020B30001200B1
:0E0B32002520202020202020002020202044EC
:100B4000433A20002020415155454345444F52200F
:100B5000200020454E5649414E444F204441444FC9
:100B60005320002020454E564941522053455249BA
:100B7000414C200020205445535445535353532097
:100B80002020002020414C41524D45202020202093
:100B90002020002020434F4E4649475552414E44A5
:100BA0004F2020200020202020534554504F494EF4
:060BB0005420202020006B
:0A0BB600D9CFE6FFDACFE6FFE1CF6A
:100BC000D9FFE2CFDAFFE652E652FC0EDBCFDEFFC2
:100BD000DBCFDDFF010EDB50D76EDF50D66EE55266
:0E0BE000E552E552E5CFDAFFE7CFD9FF12006C
:020BEE00FF0EF8
:100BF000E3501D6EEF0E01D0F30EE76EE72EFEEF11
:100C000005F00C0E1C6EE76AE72E04EF06F01C2EB2
:0C0C100003EF06F01D2EFCEF05F01200B3
:040C1C00036A026AFB
:100C2000100EE76ED89006360736023603360B50A4
:100C3000025C0C50035805E30B50025E0C50035A43
:080C4000062AE72EF0D712008E
:080C4800000EF36E00EE00F057
:100C5000080E01D81200EA6002D0EE6AFCD7F35009
:080C6000E9601200EE6AFCD706
:080C680013EE00F023EE00F092
:100C7000F86A0F9C4AEC05F003EC00F016EC01F06A
:040C8000FBD712008C
:020000040030CA
:0100000000FF
:010001000CF2
:0100030012EA
:010005008179
:010006008178
:00000001FF
